{
	"contracts/Can-raw.sol": {
		"CanDraw": {
			"abi": [
				{
					"inputs": [],
					"stateMutability": "nonpayable",
					"type": "constructor"
				},
				{
					"anonymous": false,
					"inputs": [
						{
							"indexed": true,
							"internalType": "address",
							"name": "adres",
							"type": "address"
						},
						{
							"indexed": false,
							"internalType": "uint256",
							"name": "amount",
							"type": "uint256"
						}
					],
					"name": "Invest",
					"type": "event"
				},
				{
					"anonymous": false,
					"inputs": [
						{
							"indexed": true,
							"internalType": "address",
							"name": "adres",
							"type": "address"
						},
						{
							"indexed": false,
							"internalType": "uint256",
							"name": "amount",
							"type": "uint256"
						}
					],
					"name": "Winner",
					"type": "event"
				},
				{
					"stateMutability": "payable",
					"type": "fallback"
				},
				{
					"inputs": [],
					"name": "deposit",
					"outputs": [],
					"stateMutability": "payable",
					"type": "function"
				},
				{
					"inputs": [],
					"name": "investLimit",
					"outputs": [
						{
							"internalType": "uint256",
							"name": "",
							"type": "uint256"
						}
					],
					"stateMutability": "view",
					"type": "function"
				},
				{
					"inputs": [],
					"name": "limit",
					"outputs": [
						{
							"internalType": "uint256",
							"name": "",
							"type": "uint256"
						}
					],
					"stateMutability": "view",
					"type": "function"
				},
				{
					"inputs": [
						{
							"internalType": "uint256",
							"name": "",
							"type": "uint256"
						}
					],
					"name": "players",
					"outputs": [
						{
							"internalType": "address",
							"name": "player",
							"type": "address"
						},
						{
							"internalType": "uint256",
							"name": "amount",
							"type": "uint256"
						}
					],
					"stateMutability": "view",
					"type": "function"
				},
				{
					"inputs": [
						{
							"internalType": "uint256",
							"name": "number",
							"type": "uint256"
						}
					],
					"name": "random",
					"outputs": [
						{
							"internalType": "uint256",
							"name": "",
							"type": "uint256"
						}
					],
					"stateMutability": "view",
					"type": "function"
				},
				{
					"inputs": [
						{
							"internalType": "uint256",
							"name": "_limit",
							"type": "uint256"
						}
					],
					"name": "setInvestLimit",
					"outputs": [],
					"stateMutability": "nonpayable",
					"type": "function"
				},
				{
					"inputs": [
						{
							"internalType": "uint256",
							"name": "_limit",
							"type": "uint256"
						}
					],
					"name": "setLimit",
					"outputs": [],
					"stateMutability": "nonpayable",
					"type": "function"
				},
				{
					"inputs": [],
					"name": "totalAmount",
					"outputs": [
						{
							"internalType": "uint256",
							"name": "",
							"type": "uint256"
						}
					],
					"stateMutability": "view",
					"type": "function"
				},
				{
					"inputs": [],
					"name": "totalInvest",
					"outputs": [
						{
							"internalType": "uint256",
							"name": "",
							"type": "uint256"
						}
					],
					"stateMutability": "view",
					"type": "function"
				},
				{
					"stateMutability": "payable",
					"type": "receive"
				}
			],
			"devdoc": {
				"kind": "dev",
				"methods": {},
				"version": 1
			},
			"evm": {
				"assembly": "    /* \"contracts/Can-raw.sol\":57:2056  contract CanDraw {... */\n  mstore(0x40, 0x80)\n    /* \"contracts/Can-raw.sol\":337:338  5 */\n  0x05\n    /* \"contracts/Can-raw.sol\":317:338  uint public limit = 5 */\n  0x04\n  sstore\n    /* \"contracts/Can-raw.sol\":370:380  1 * 10**18 */\n  0x0de0b6b3a7640000\n    /* \"contracts/Can-raw.sol\":344:380  uint public investLimit = 1 * 10**18 */\n  0x05\n  sstore\n    /* \"contracts/Can-raw.sol\":100:149  constructor() {... */\n  callvalue\n  dup1\n  iszero\n  tag_1\n  jumpi\n  0x00\n  dup1\n  revert\ntag_1:\n  pop\n    /* \"contracts/Can-raw.sol\":132:142  msg.sender */\n  caller\n    /* \"contracts/Can-raw.sol\":124:129  owner */\n  0x00\n  dup1\n    /* \"contracts/Can-raw.sol\":124:142  owner = msg.sender */\n  0x0100\n  exp\n  dup2\n  sload\n  dup2\n  0xffffffffffffffffffffffffffffffffffffffff\n  mul\n  not\n  and\n  swap1\n  dup4\n  0xffffffffffffffffffffffffffffffffffffffff\n  and\n  mul\n  or\n  swap1\n  sstore\n  pop\n    /* \"contracts/Can-raw.sol\":57:2056  contract CanDraw {... */\n  dataSize(sub_0)\n  dup1\n  dataOffset(sub_0)\n  0x00\n  codecopy\n  0x00\n  return\nstop\n\nsub_0: assembly {\n        /* \"contracts/Can-raw.sol\":57:2056  contract CanDraw {... */\n      mstore(0x40, 0x80)\n      jumpi(tag_1, lt(calldatasize, 0x04))\n      shr(0xe0, calldataload(0x00))\n      dup1\n      0x713d1929\n      gt\n      tag_12\n      jumpi\n      dup1\n      0x713d1929\n      eq\n      tag_7\n      jumpi\n      dup1\n      0xa4d66daf\n      eq\n      tag_8\n      jumpi\n      dup1\n      0xb863bd37\n      eq\n      tag_9\n      jumpi\n      dup1\n      0xd0e30db0\n      eq\n      tag_10\n      jumpi\n      dup1\n      0xf71d96cb\n      eq\n      tag_11\n      jumpi\n      jump(tag_2)\n    tag_12:\n      dup1\n      0x1a39d8ef\n      eq\n      tag_3\n      jumpi\n      dup1\n      0x27ea6f2b\n      eq\n      tag_4\n      jumpi\n      dup1\n      0x2d3b5c7c\n      eq\n      tag_5\n      jumpi\n      dup1\n      0x616b40e3\n      eq\n      tag_6\n      jumpi\n      jump(tag_2)\n    tag_1:\n      jumpi(tag_2, calldatasize)\n        /* \"contracts/Can-raw.sol\":632:633  0 */\n      0x00\n        /* \"contracts/Can-raw.sol\":619:628  msg.value */\n      callvalue\n        /* \"contracts/Can-raw.sol\":619:633  msg.value != 0 */\n      sub\n        /* \"contracts/Can-raw.sol\":611:638  require(msg.value != 0, \"\") */\n      tag_15\n      jumpi\n      mload(0x40)\n      0x08c379a000000000000000000000000000000000000000000000000000000000\n      dup2\n      mstore\n      0x04\n      add\n      tag_16\n      swap1\n      tag_17\n      jump\t// in\n    tag_16:\n      mload(0x40)\n      dup1\n      swap2\n      sub\n      swap1\n      revert\n    tag_15:\n        /* \"contracts/Can-raw.sol\":57:2056  contract CanDraw {... */\n      stop\n    tag_2:\n        /* \"contracts/Can-raw.sol\":555:556  0 */\n      0x00\n        /* \"contracts/Can-raw.sol\":542:551  msg.value */\n      callvalue\n        /* \"contracts/Can-raw.sol\":542:556  msg.value != 0 */\n      sub\n        /* \"contracts/Can-raw.sol\":534:561  require(msg.value != 0, \"\") */\n      tag_20\n      jumpi\n      mload(0x40)\n      0x08c379a000000000000000000000000000000000000000000000000000000000\n      dup2\n      mstore\n      0x04\n      add\n      tag_21\n      swap1\n      tag_17\n      jump\t// in\n    tag_21:\n      mload(0x40)\n      dup1\n      swap2\n      sub\n      swap1\n      revert\n    tag_20:\n        /* \"contracts/Can-raw.sol\":57:2056  contract CanDraw {... */\n      stop\n        /* \"contracts/Can-raw.sol\":259:282  uint public totalAmount */\n    tag_3:\n      callvalue\n      dup1\n      iszero\n      tag_22\n      jumpi\n      0x00\n      dup1\n      revert\n    tag_22:\n      pop\n      tag_23\n      tag_24\n      jump\t// in\n    tag_23:\n      mload(0x40)\n      tag_25\n      swap2\n      swap1\n      tag_26\n      jump\t// in\n    tag_25:\n      mload(0x40)\n      dup1\n      swap2\n      sub\n      swap1\n      return\n        /* \"contracts/Can-raw.sol\":1888:1957  function setLimit(uint _limit) public {... */\n    tag_4:\n      callvalue\n      dup1\n      iszero\n      tag_27\n      jumpi\n      0x00\n      dup1\n      revert\n    tag_27:\n      pop\n      tag_28\n      0x04\n      dup1\n      calldatasize\n      sub\n      dup2\n      add\n      swap1\n      tag_29\n      swap2\n      swap1\n      tag_30\n      jump\t// in\n    tag_29:\n      tag_31\n      jump\t// in\n    tag_28:\n      stop\n        /* \"contracts/Can-raw.sol\":344:380  uint public investLimit = 1 * 10**18 */\n    tag_5:\n      callvalue\n      dup1\n      iszero\n      tag_32\n      jumpi\n      0x00\n      dup1\n      revert\n    tag_32:\n      pop\n      tag_33\n      tag_34\n      jump\t// in\n    tag_33:\n      mload(0x40)\n      tag_35\n      swap2\n      swap1\n      tag_26\n      jump\t// in\n    tag_35:\n      mload(0x40)\n      dup1\n      swap2\n      sub\n      swap1\n      return\n        /* \"contracts/Can-raw.sol\":288:311  uint public totalInvest */\n    tag_6:\n      callvalue\n      dup1\n      iszero\n      tag_36\n      jumpi\n      0x00\n      dup1\n      revert\n    tag_36:\n      pop\n      tag_37\n      tag_38\n      jump\t// in\n    tag_37:\n      mload(0x40)\n      tag_39\n      swap2\n      swap1\n      tag_26\n      jump\t// in\n    tag_39:\n      mload(0x40)\n      dup1\n      swap2\n      sub\n      swap1\n      return\n        /* \"contracts/Can-raw.sol\":1963:2054  function setInvestLimit(uint _limit) public onlyOwner {... */\n    tag_7:\n      callvalue\n      dup1\n      iszero\n      tag_40\n      jumpi\n      0x00\n      dup1\n      revert\n    tag_40:\n      pop\n      tag_41\n      0x04\n      dup1\n      calldatasize\n      sub\n      dup2\n      add\n      swap1\n      tag_42\n      swap2\n      swap1\n      tag_30\n      jump\t// in\n    tag_42:\n      tag_43\n      jump\t// in\n    tag_41:\n      stop\n        /* \"contracts/Can-raw.sol\":317:338  uint public limit = 5 */\n    tag_8:\n      callvalue\n      dup1\n      iszero\n      tag_44\n      jumpi\n      0x00\n      dup1\n      revert\n    tag_44:\n      pop\n      tag_45\n      tag_46\n      jump\t// in\n    tag_45:\n      mload(0x40)\n      tag_47\n      swap2\n      swap1\n      tag_26\n      jump\t// in\n    tag_47:\n      mload(0x40)\n      dup1\n      swap2\n      sub\n      swap1\n      return\n        /* \"contracts/Can-raw.sol\":763:1103  function random(uint number) public view returns (uint) {... */\n    tag_9:\n      callvalue\n      dup1\n      iszero\n      tag_48\n      jumpi\n      0x00\n      dup1\n      revert\n    tag_48:\n      pop\n      tag_49\n      0x04\n      dup1\n      calldatasize\n      sub\n      dup2\n      add\n      swap1\n      tag_50\n      swap2\n      swap1\n      tag_30\n      jump\t// in\n    tag_50:\n      tag_51\n      jump\t// in\n    tag_49:\n      mload(0x40)\n      tag_52\n      swap2\n      swap1\n      tag_26\n      jump\t// in\n    tag_52:\n      mload(0x40)\n      dup1\n      swap2\n      sub\n      swap1\n      return\n        /* \"contracts/Can-raw.sol\":1109:1727  function deposit() public payable {... */\n    tag_10:\n      tag_53\n      tag_54\n      jump\t// in\n    tag_53:\n      stop\n        /* \"contracts/Can-raw.sol\":230:253  Player[] public players */\n    tag_11:\n      callvalue\n      dup1\n      iszero\n      tag_55\n      jumpi\n      0x00\n      dup1\n      revert\n    tag_55:\n      pop\n      tag_56\n      0x04\n      dup1\n      calldatasize\n      sub\n      dup2\n      add\n      swap1\n      tag_57\n      swap2\n      swap1\n      tag_30\n      jump\t// in\n    tag_57:\n      tag_58\n      jump\t// in\n    tag_56:\n      mload(0x40)\n      tag_59\n      swap3\n      swap2\n      swap1\n      tag_60\n      jump\t// in\n    tag_59:\n      mload(0x40)\n      dup1\n      swap2\n      sub\n      swap1\n      return\n        /* \"contracts/Can-raw.sol\":259:282  uint public totalAmount */\n    tag_24:\n      sload(0x02)\n      dup2\n      jump\t// out\n        /* \"contracts/Can-raw.sol\":1888:1957  function setLimit(uint _limit) public {... */\n    tag_31:\n        /* \"contracts/Can-raw.sol\":1944:1950  _limit */\n      dup1\n        /* \"contracts/Can-raw.sol\":1936:1941  limit */\n      0x04\n        /* \"contracts/Can-raw.sol\":1936:1950  limit = _limit */\n      dup2\n      swap1\n      sstore\n      pop\n        /* \"contracts/Can-raw.sol\":1888:1957  function setLimit(uint _limit) public {... */\n      pop\n      jump\t// out\n        /* \"contracts/Can-raw.sol\":344:380  uint public investLimit = 1 * 10**18 */\n    tag_34:\n      sload(0x05)\n      dup2\n      jump\t// out\n        /* \"contracts/Can-raw.sol\":288:311  uint public totalInvest */\n    tag_38:\n      sload(0x03)\n      dup2\n      jump\t// out\n        /* \"contracts/Can-raw.sol\":1963:2054  function setInvestLimit(uint _limit) public onlyOwner {... */\n    tag_43:\n        /* \"contracts/Can-raw.sol\":704:709  owner */\n      0x00\n      dup1\n      sload\n      swap1\n      0x0100\n      exp\n      swap1\n      div\n      0xffffffffffffffffffffffffffffffffffffffff\n      and\n        /* \"contracts/Can-raw.sol\":690:709  msg.sender == owner */\n      0xffffffffffffffffffffffffffffffffffffffff\n      and\n        /* \"contracts/Can-raw.sol\":690:700  msg.sender */\n      caller\n        /* \"contracts/Can-raw.sol\":690:709  msg.sender == owner */\n      0xffffffffffffffffffffffffffffffffffffffff\n      and\n      eq\n        /* \"contracts/Can-raw.sol\":682:739  require(msg.sender == owner, \"You need to be authorized\") */\n      tag_63\n      jumpi\n      mload(0x40)\n      0x08c379a000000000000000000000000000000000000000000000000000000000\n      dup2\n      mstore\n      0x04\n      add\n      tag_64\n      swap1\n      tag_65\n      jump\t// in\n    tag_64:\n      mload(0x40)\n      dup1\n      swap2\n      sub\n      swap1\n      revert\n    tag_63:\n        /* \"contracts/Can-raw.sol\":2041:2047  _limit */\n      dup1\n        /* \"contracts/Can-raw.sol\":2027:2038  investLimit */\n      0x05\n        /* \"contracts/Can-raw.sol\":2027:2047  investLimit = _limit */\n      dup2\n      swap1\n      sstore\n      pop\n        /* \"contracts/Can-raw.sol\":1963:2054  function setInvestLimit(uint _limit) public onlyOwner {... */\n      pop\n      jump\t// out\n        /* \"contracts/Can-raw.sol\":317:338  uint public limit = 5 */\n    tag_46:\n      sload(0x04)\n      dup2\n      jump\t// out\n        /* \"contracts/Can-raw.sol\":763:1103  function random(uint number) public view returns (uint) {... */\n    tag_51:\n        /* \"contracts/Can-raw.sol\":813:817  uint */\n      0x00\n        /* \"contracts/Can-raw.sol\":1093:1096  100 */\n      0x64\n        /* \"contracts/Can-raw.sol\":943:958  block.timestamp */\n      timestamp\n        /* \"contracts/Can-raw.sol\":984:1000  block.difficulty */\n      prevrandao\n        /* \"contracts/Can-raw.sol\":1026:1036  msg.sender */\n      caller\n        /* \"contracts/Can-raw.sol\":901:1058  abi.encodePacked(... */\n      add(0x20, mload(0x40))\n      tag_68\n      swap4\n      swap3\n      swap2\n      swap1\n      tag_69\n      jump\t// in\n    tag_68:\n      mload(0x40)\n      0x20\n      dup2\n      dup4\n      sub\n      sub\n      dup2\n      mstore\n      swap1\n      0x40\n      mstore\n        /* \"contracts/Can-raw.sol\":870:1076  keccak256(... */\n      dup1\n      mload\n      swap1\n      0x20\n      add\n      keccak256\n        /* \"contracts/Can-raw.sol\":848:1090  uint(... */\n      0x00\n      shr\n        /* \"contracts/Can-raw.sol\":848:1096  uint(... */\n      tag_70\n      swap2\n      swap1\n      tag_71\n      jump\t// in\n    tag_70:\n        /* \"contracts/Can-raw.sol\":829:1096  return... */\n      swap1\n      pop\n        /* \"contracts/Can-raw.sol\":763:1103  function random(uint number) public view returns (uint) {... */\n      swap2\n      swap1\n      pop\n      jump\t// out\n        /* \"contracts/Can-raw.sol\":1109:1727  function deposit() public payable {... */\n    tag_54:\n        /* \"contracts/Can-raw.sol\":1173:1174  0 */\n      0x00\n        /* \"contracts/Can-raw.sol\":1161:1170  msg.value */\n      callvalue\n        /* \"contracts/Can-raw.sol\":1161:1174  msg.value > 0 */\n      gt\n        /* \"contracts/Can-raw.sol\":1153:1179  require(msg.value > 0, \"\") */\n      tag_73\n      jumpi\n      mload(0x40)\n      0x08c379a000000000000000000000000000000000000000000000000000000000\n      dup2\n      mstore\n      0x04\n      add\n      tag_74\n      swap1\n      tag_17\n      jump\t// in\n    tag_74:\n      mload(0x40)\n      dup1\n      swap2\n      sub\n      swap1\n      revert\n    tag_73:\n        /* \"contracts/Can-raw.sol\":1219:1220  0 */\n      0x00\n        /* \"contracts/Can-raw.sol\":1197:1221  msg.sender != address(0) */\n      0xffffffffffffffffffffffffffffffffffffffff\n      and\n        /* \"contracts/Can-raw.sol\":1197:1207  msg.sender */\n      caller\n        /* \"contracts/Can-raw.sol\":1197:1221  msg.sender != address(0) */\n      0xffffffffffffffffffffffffffffffffffffffff\n      and\n      sub\n        /* \"contracts/Can-raw.sol\":1189:1222  require(msg.sender != address(0)) */\n      tag_75\n      jumpi\n      0x00\n      dup1\n      revert\n    tag_75:\n        /* \"contracts/Can-raw.sol\":1233:1248  Player memory p */\n      0x00\n        /* \"contracts/Can-raw.sol\":1251:1298  Player({player: msg.sender, amount: msg.value}) */\n      mload(0x40)\n      dup1\n      0x40\n      add\n      0x40\n      mstore\n      dup1\n        /* \"contracts/Can-raw.sol\":1267:1277  msg.sender */\n      caller\n        /* \"contracts/Can-raw.sol\":1251:1298  Player({player: msg.sender, amount: msg.value}) */\n      0xffffffffffffffffffffffffffffffffffffffff\n      and\n      dup2\n      mstore\n      0x20\n      add\n        /* \"contracts/Can-raw.sol\":1287:1296  msg.value */\n      callvalue\n        /* \"contracts/Can-raw.sol\":1251:1298  Player({player: msg.sender, amount: msg.value}) */\n      dup2\n      mstore\n      pop\n        /* \"contracts/Can-raw.sol\":1233:1298  Player memory p = Player({player: msg.sender, amount: msg.value}) */\n      swap1\n      pop\n        /* \"contracts/Can-raw.sol\":1309:1316  players */\n      0x01\n        /* \"contracts/Can-raw.sol\":1322:1323  p */\n      dup2\n        /* \"contracts/Can-raw.sol\":1309:1324  players.push(p) */\n      swap1\n      dup1\n      0x01\n      dup2\n      sload\n      add\n      dup1\n      dup3\n      sstore\n      dup1\n      swap2\n      pop\n      pop\n      0x01\n      swap1\n      sub\n      swap1\n      0x00\n      mstore\n      keccak256(0x00, 0x20)\n      swap1\n      0x02\n      mul\n      add\n      0x00\n      swap1\n      swap2\n      swap1\n      swap2\n      swap1\n      swap2\n      pop\n      0x00\n      dup3\n      add\n      mload\n      dup2\n      0x00\n      add\n      exp(0x0100, 0x00)\n      dup2\n      sload\n      dup2\n      0xffffffffffffffffffffffffffffffffffffffff\n      mul\n      not\n      and\n      swap1\n      dup4\n      0xffffffffffffffffffffffffffffffffffffffff\n      and\n      mul\n      or\n      swap1\n      sstore\n      pop\n      0x20\n      dup3\n      add\n      mload\n      dup2\n      0x01\n      add\n      sstore\n      pop\n      pop\n        /* \"contracts/Can-raw.sol\":1349:1358  msg.value */\n      callvalue\n        /* \"contracts/Can-raw.sol\":1334:1345  totalAmount */\n      0x02\n      0x00\n        /* \"contracts/Can-raw.sol\":1334:1358  totalAmount += msg.value */\n      dup3\n      dup3\n      sload\n      tag_77\n      swap2\n      swap1\n      tag_78\n      jump\t// in\n    tag_77:\n      swap3\n      pop\n      pop\n      dup2\n      swap1\n      sstore\n      pop\n        /* \"contracts/Can-raw.sol\":1368:1379  totalInvest */\n      0x03\n      0x00\n        /* \"contracts/Can-raw.sol\":1368:1381  totalInvest++ */\n      dup2\n      sload\n      dup1\n      swap3\n      swap2\n      swap1\n      tag_79\n      swap1\n      tag_80\n      jump\t// in\n    tag_79:\n      swap2\n      swap1\n      pop\n      sstore\n      pop\n        /* \"contracts/Can-raw.sol\":1404:1414  msg.sender */\n      caller\n        /* \"contracts/Can-raw.sol\":1397:1426  Invest(msg.sender, msg.value) */\n      0xffffffffffffffffffffffffffffffffffffffff\n      and\n      0xd90d253a9de34d2fdd5a75ae49ea17fcb43af32fc8ea08cc6d2341991dd3872e\n        /* \"contracts/Can-raw.sol\":1416:1425  msg.value */\n      callvalue\n        /* \"contracts/Can-raw.sol\":1397:1426  Invest(msg.sender, msg.value) */\n      mload(0x40)\n      tag_81\n      swap2\n      swap1\n      tag_26\n      jump\t// in\n    tag_81:\n      mload(0x40)\n      dup1\n      swap2\n      sub\n      swap1\n      log2\n        /* \"contracts/Can-raw.sol\":1456:1461  limit */\n      sload(0x04)\n        /* \"contracts/Can-raw.sol\":1441:1452  totalInvest */\n      sload(0x03)\n        /* \"contracts/Can-raw.sol\":1441:1461  totalInvest == limit */\n      sub\n        /* \"contracts/Can-raw.sol\":1437:1721  if (totalInvest == limit) {... */\n      tag_82\n      jumpi\n        /* \"contracts/Can-raw.sol\":1477:1498  address winnerAddress */\n      0x00\n        /* \"contracts/Can-raw.sol\":1501:1508  players */\n      0x01\n        /* \"contracts/Can-raw.sol\":1509:1522  random(limit) */\n      tag_83\n        /* \"contracts/Can-raw.sol\":1516:1521  limit */\n      sload(0x04)\n        /* \"contracts/Can-raw.sol\":1509:1515  random */\n      tag_51\n        /* \"contracts/Can-raw.sol\":1509:1522  random(limit) */\n      jump\t// in\n    tag_83:\n        /* \"contracts/Can-raw.sol\":1501:1523  players[random(limit)] */\n      dup2\n      sload\n      dup2\n      lt\n      tag_84\n      jumpi\n      tag_85\n      tag_86\n      jump\t// in\n    tag_85:\n    tag_84:\n      swap1\n      0x00\n      mstore\n      keccak256(0x00, 0x20)\n      swap1\n      0x02\n      mul\n      add\n        /* \"contracts/Can-raw.sol\":1501:1530  players[random(limit)].player */\n      0x00\n      add\n      0x00\n      swap1\n      sload\n      swap1\n      0x0100\n      exp\n      swap1\n      div\n      0xffffffffffffffffffffffffffffffffffffffff\n      and\n        /* \"contracts/Can-raw.sol\":1477:1530  address winnerAddress = players[random(limit)].player */\n      swap1\n      pop\n        /* \"contracts/Can-raw.sol\":1544:1561  uint earnedAmount */\n      0x00\n        /* \"contracts/Can-raw.sol\":1564:1575  totalAmount */\n      sload(0x02)\n        /* \"contracts/Can-raw.sol\":1544:1575  uint earnedAmount = totalAmount */\n      swap1\n      pop\n        /* \"contracts/Can-raw.sol\":1589:1624  winner(winnerAddress, earnedAmount) */\n      tag_88\n        /* \"contracts/Can-raw.sol\":1596:1609  winnerAddress */\n      dup3\n        /* \"contracts/Can-raw.sol\":1611:1623  earnedAmount */\n      dup3\n        /* \"contracts/Can-raw.sol\":1589:1595  winner */\n      tag_89\n        /* \"contracts/Can-raw.sol\":1589:1624  winner(winnerAddress, earnedAmount) */\n      jump\t// in\n    tag_88:\n        /* \"contracts/Can-raw.sol\":1645:1652  players */\n      0x01\n      0x00\n        /* \"contracts/Can-raw.sol\":1638:1652  delete players */\n      tag_90\n      swap2\n      swap1\n      tag_91\n      jump\t// in\n    tag_90:\n        /* \"contracts/Can-raw.sol\":1680:1681  0 */\n      0x00\n        /* \"contracts/Can-raw.sol\":1666:1677  totalAmount */\n      0x02\n        /* \"contracts/Can-raw.sol\":1666:1681  totalAmount = 0 */\n      dup2\n      swap1\n      sstore\n      pop\n        /* \"contracts/Can-raw.sol\":1709:1710  0 */\n      0x00\n        /* \"contracts/Can-raw.sol\":1695:1706  totalInvest */\n      0x03\n        /* \"contracts/Can-raw.sol\":1695:1710  totalInvest = 0 */\n      dup2\n      swap1\n      sstore\n      pop\n        /* \"contracts/Can-raw.sol\":1463:1721  {... */\n      pop\n      pop\n        /* \"contracts/Can-raw.sol\":1437:1721  if (totalInvest == limit) {... */\n    tag_82:\n        /* \"contracts/Can-raw.sol\":1143:1727  {... */\n      pop\n        /* \"contracts/Can-raw.sol\":1109:1727  function deposit() public payable {... */\n      jump\t// out\n        /* \"contracts/Can-raw.sol\":230:253  Player[] public players */\n    tag_58:\n      0x01\n      dup2\n      dup2\n      sload\n      dup2\n      lt\n      tag_92\n      jumpi\n      0x00\n      dup1\n      revert\n    tag_92:\n      swap1\n      0x00\n      mstore\n      keccak256(0x00, 0x20)\n      swap1\n      0x02\n      mul\n      add\n      0x00\n      swap2\n      pop\n      swap1\n      pop\n      dup1\n      0x00\n      add\n      0x00\n      swap1\n      sload\n      swap1\n      0x0100\n      exp\n      swap1\n      div\n      0xffffffffffffffffffffffffffffffffffffffff\n      and\n      swap1\n      dup1\n      0x01\n      add\n      sload\n      swap1\n      pop\n      dup3\n      jump\t// out\n        /* \"contracts/Can-raw.sol\":1733:1882  function winner(address _address, uint _amount) internal {... */\n    tag_89:\n        /* \"contracts/Can-raw.sol\":1808:1816  _address */\n      dup2\n        /* \"contracts/Can-raw.sol\":1800:1826  payable(_address).transfer */\n      0xffffffffffffffffffffffffffffffffffffffff\n      and\n        /* \"contracts/Can-raw.sol\":1800:1835  payable(_address).transfer(_amount) */\n      0x08fc\n        /* \"contracts/Can-raw.sol\":1827:1834  _amount */\n      dup3\n        /* \"contracts/Can-raw.sol\":1800:1835  payable(_address).transfer(_amount) */\n      swap1\n      dup2\n      iszero\n      mul\n      swap1\n      mload(0x40)\n      0x00\n      mload(0x40)\n      dup1\n      dup4\n      sub\n      dup2\n      dup6\n      dup9\n      dup9\n      call\n      swap4\n      pop\n      pop\n      pop\n      pop\n      iszero\n      dup1\n      iszero\n      tag_96\n      jumpi\n      returndatasize\n      0x00\n      dup1\n      returndatacopy\n      revert(0x00, returndatasize)\n    tag_96:\n      pop\n        /* \"contracts/Can-raw.sol\":1857:1865  _address */\n      dup2\n        /* \"contracts/Can-raw.sol\":1850:1875  Winner(_address, _amount) */\n      0xffffffffffffffffffffffffffffffffffffffff\n      and\n      0x9c2270628a9b29d30ae96b6c4c14ed646ee134febdce38a5b77f2bde9cea2e20\n        /* \"contracts/Can-raw.sol\":1867:1874  _amount */\n      dup3\n        /* \"contracts/Can-raw.sol\":1850:1875  Winner(_address, _amount) */\n      mload(0x40)\n      tag_97\n      swap2\n      swap1\n      tag_26\n      jump\t// in\n    tag_97:\n      mload(0x40)\n      dup1\n      swap2\n      sub\n      swap1\n      log2\n        /* \"contracts/Can-raw.sol\":1733:1882  function winner(address _address, uint _amount) internal {... */\n      pop\n      pop\n      jump\t// out\n    tag_91:\n      pop\n      dup1\n      sload\n      0x00\n      dup3\n      sstore\n      0x02\n      mul\n      swap1\n      0x00\n      mstore\n      keccak256(0x00, 0x20)\n      swap1\n      dup2\n      add\n      swap1\n      tag_99\n      swap2\n      swap1\n      tag_100\n      jump\t// in\n    tag_99:\n      pop\n      jump\t// out\n    tag_100:\n    tag_101:\n      dup1\n      dup3\n      gt\n      iszero\n      tag_102\n      jumpi\n      0x00\n      dup1\n      dup3\n      add\n      exp(0x0100, 0x00)\n      dup2\n      sload\n      swap1\n      0xffffffffffffffffffffffffffffffffffffffff\n      mul\n      not\n      and\n      swap1\n      sstore\n      0x01\n      dup3\n      add\n      0x00\n      swap1\n      sstore\n      pop\n      0x02\n      add\n      jump(tag_101)\n    tag_102:\n      pop\n      swap1\n      jump\t// out\n        /* \"#utility.yul\":7:176   */\n    tag_103:\n        /* \"#utility.yul\":91:102   */\n      0x00\n        /* \"#utility.yul\":125:131   */\n      dup3\n        /* \"#utility.yul\":120:123   */\n      dup3\n        /* \"#utility.yul\":113:132   */\n      mstore\n        /* \"#utility.yul\":165:169   */\n      0x20\n        /* \"#utility.yul\":160:163   */\n      dup3\n        /* \"#utility.yul\":156:170   */\n      add\n        /* \"#utility.yul\":141:170   */\n      swap1\n      pop\n        /* \"#utility.yul\":7:176   */\n      swap3\n      swap2\n      pop\n      pop\n      jump\t// out\n        /* \"#utility.yul\":182:296   */\n    tag_104:\n      pop\n      jump\t// out\n        /* \"#utility.yul\":302:666   */\n    tag_105:\n        /* \"#utility.yul\":444:447   */\n      0x00\n        /* \"#utility.yul\":465:531   */\n      tag_130\n        /* \"#utility.yul\":529:530   */\n      0x00\n        /* \"#utility.yul\":524:527   */\n      dup4\n        /* \"#utility.yul\":465:531   */\n      tag_103\n      jump\t// in\n    tag_130:\n        /* \"#utility.yul\":458:531   */\n      swap2\n      pop\n        /* \"#utility.yul\":540:633   */\n      tag_131\n        /* \"#utility.yul\":629:632   */\n      dup3\n        /* \"#utility.yul\":540:633   */\n      tag_104\n      jump\t// in\n    tag_131:\n        /* \"#utility.yul\":658:659   */\n      0x00\n        /* \"#utility.yul\":653:656   */\n      dup3\n        /* \"#utility.yul\":649:660   */\n      add\n        /* \"#utility.yul\":642:660   */\n      swap1\n      pop\n        /* \"#utility.yul\":302:666   */\n      swap2\n      swap1\n      pop\n      jump\t// out\n        /* \"#utility.yul\":672:1091   */\n    tag_17:\n        /* \"#utility.yul\":838:842   */\n      0x00\n        /* \"#utility.yul\":876:878   */\n      0x20\n        /* \"#utility.yul\":865:874   */\n      dup3\n        /* \"#utility.yul\":861:879   */\n      add\n        /* \"#utility.yul\":853:879   */\n      swap1\n      pop\n        /* \"#utility.yul\":925:934   */\n      dup2\n        /* \"#utility.yul\":919:923   */\n      dup2\n        /* \"#utility.yul\":915:935   */\n      sub\n        /* \"#utility.yul\":911:912   */\n      0x00\n        /* \"#utility.yul\":900:909   */\n      dup4\n        /* \"#utility.yul\":896:913   */\n      add\n        /* \"#utility.yul\":889:936   */\n      mstore\n        /* \"#utility.yul\":953:1084   */\n      tag_133\n        /* \"#utility.yul\":1079:1083   */\n      dup2\n        /* \"#utility.yul\":953:1084   */\n      tag_105\n      jump\t// in\n    tag_133:\n        /* \"#utility.yul\":945:1084   */\n      swap1\n      pop\n        /* \"#utility.yul\":672:1091   */\n      swap2\n      swap1\n      pop\n      jump\t// out\n        /* \"#utility.yul\":1097:1174   */\n    tag_106:\n        /* \"#utility.yul\":1134:1141   */\n      0x00\n        /* \"#utility.yul\":1163:1168   */\n      dup2\n        /* \"#utility.yul\":1152:1168   */\n      swap1\n      pop\n        /* \"#utility.yul\":1097:1174   */\n      swap2\n      swap1\n      pop\n      jump\t// out\n        /* \"#utility.yul\":1180:1298   */\n    tag_107:\n        /* \"#utility.yul\":1267:1291   */\n      tag_136\n        /* \"#utility.yul\":1285:1290   */\n      dup2\n        /* \"#utility.yul\":1267:1291   */\n      tag_106\n      jump\t// in\n    tag_136:\n        /* \"#utility.yul\":1262:1265   */\n      dup3\n        /* \"#utility.yul\":1255:1292   */\n      mstore\n        /* \"#utility.yul\":1180:1298   */\n      pop\n      pop\n      jump\t// out\n        /* \"#utility.yul\":1304:1526   */\n    tag_26:\n        /* \"#utility.yul\":1397:1401   */\n      0x00\n        /* \"#utility.yul\":1435:1437   */\n      0x20\n        /* \"#utility.yul\":1424:1433   */\n      dup3\n        /* \"#utility.yul\":1420:1438   */\n      add\n        /* \"#utility.yul\":1412:1438   */\n      swap1\n      pop\n        /* \"#utility.yul\":1448:1519   */\n      tag_138\n        /* \"#utility.yul\":1516:1517   */\n      0x00\n        /* \"#utility.yul\":1505:1514   */\n      dup4\n        /* \"#utility.yul\":1501:1518   */\n      add\n        /* \"#utility.yul\":1492:1498   */\n      dup5\n        /* \"#utility.yul\":1448:1519   */\n      tag_107\n      jump\t// in\n    tag_138:\n        /* \"#utility.yul\":1304:1526   */\n      swap3\n      swap2\n      pop\n      pop\n      jump\t// out\n        /* \"#utility.yul\":1613:1730   */\n    tag_109:\n        /* \"#utility.yul\":1722:1723   */\n      0x00\n        /* \"#utility.yul\":1719:1720   */\n      dup1\n        /* \"#utility.yul\":1712:1724   */\n      revert\n        /* \"#utility.yul\":1859:1981   */\n    tag_111:\n        /* \"#utility.yul\":1932:1956   */\n      tag_143\n        /* \"#utility.yul\":1950:1955   */\n      dup2\n        /* \"#utility.yul\":1932:1956   */\n      tag_106\n      jump\t// in\n    tag_143:\n        /* \"#utility.yul\":1925:1930   */\n      dup2\n        /* \"#utility.yul\":1922:1957   */\n      eq\n        /* \"#utility.yul\":1912:1975   */\n      tag_144\n      jumpi\n        /* \"#utility.yul\":1971:1972   */\n      0x00\n        /* \"#utility.yul\":1968:1969   */\n      dup1\n        /* \"#utility.yul\":1961:1973   */\n      revert\n        /* \"#utility.yul\":1912:1975   */\n    tag_144:\n        /* \"#utility.yul\":1859:1981   */\n      pop\n      jump\t// out\n        /* \"#utility.yul\":1987:2126   */\n    tag_112:\n        /* \"#utility.yul\":2033:2038   */\n      0x00\n        /* \"#utility.yul\":2071:2077   */\n      dup2\n        /* \"#utility.yul\":2058:2078   */\n      calldataload\n        /* \"#utility.yul\":2049:2078   */\n      swap1\n      pop\n        /* \"#utility.yul\":2087:2120   */\n      tag_146\n        /* \"#utility.yul\":2114:2119   */\n      dup2\n        /* \"#utility.yul\":2087:2120   */\n      tag_111\n      jump\t// in\n    tag_146:\n        /* \"#utility.yul\":1987:2126   */\n      swap3\n      swap2\n      pop\n      pop\n      jump\t// out\n        /* \"#utility.yul\":2132:2461   */\n    tag_30:\n        /* \"#utility.yul\":2191:2197   */\n      0x00\n        /* \"#utility.yul\":2240:2242   */\n      0x20\n        /* \"#utility.yul\":2228:2237   */\n      dup3\n        /* \"#utility.yul\":2219:2226   */\n      dup5\n        /* \"#utility.yul\":2215:2238   */\n      sub\n        /* \"#utility.yul\":2211:2243   */\n      slt\n        /* \"#utility.yul\":2208:2327   */\n      iszero\n      tag_148\n      jumpi\n        /* \"#utility.yul\":2246:2325   */\n      tag_149\n      tag_109\n      jump\t// in\n    tag_149:\n        /* \"#utility.yul\":2208:2327   */\n    tag_148:\n        /* \"#utility.yul\":2366:2367   */\n      0x00\n        /* \"#utility.yul\":2391:2444   */\n      tag_150\n        /* \"#utility.yul\":2436:2443   */\n      dup5\n        /* \"#utility.yul\":2427:2433   */\n      dup3\n        /* \"#utility.yul\":2416:2425   */\n      dup6\n        /* \"#utility.yul\":2412:2434   */\n      add\n        /* \"#utility.yul\":2391:2444   */\n      tag_112\n      jump\t// in\n    tag_150:\n        /* \"#utility.yul\":2381:2444   */\n      swap2\n      pop\n        /* \"#utility.yul\":2337:2454   */\n      pop\n        /* \"#utility.yul\":2132:2461   */\n      swap3\n      swap2\n      pop\n      pop\n      jump\t// out\n        /* \"#utility.yul\":2467:2593   */\n    tag_113:\n        /* \"#utility.yul\":2504:2511   */\n      0x00\n        /* \"#utility.yul\":2544:2586   */\n      0xffffffffffffffffffffffffffffffffffffffff\n        /* \"#utility.yul\":2537:2542   */\n      dup3\n        /* \"#utility.yul\":2533:2587   */\n      and\n        /* \"#utility.yul\":2522:2587   */\n      swap1\n      pop\n        /* \"#utility.yul\":2467:2593   */\n      swap2\n      swap1\n      pop\n      jump\t// out\n        /* \"#utility.yul\":2599:2695   */\n    tag_114:\n        /* \"#utility.yul\":2636:2643   */\n      0x00\n        /* \"#utility.yul\":2665:2689   */\n      tag_153\n        /* \"#utility.yul\":2683:2688   */\n      dup3\n        /* \"#utility.yul\":2665:2689   */\n      tag_113\n      jump\t// in\n    tag_153:\n        /* \"#utility.yul\":2654:2689   */\n      swap1\n      pop\n        /* \"#utility.yul\":2599:2695   */\n      swap2\n      swap1\n      pop\n      jump\t// out\n        /* \"#utility.yul\":2701:2819   */\n    tag_115:\n        /* \"#utility.yul\":2788:2812   */\n      tag_155\n        /* \"#utility.yul\":2806:2811   */\n      dup2\n        /* \"#utility.yul\":2788:2812   */\n      tag_114\n      jump\t// in\n    tag_155:\n        /* \"#utility.yul\":2783:2786   */\n      dup3\n        /* \"#utility.yul\":2776:2813   */\n      mstore\n        /* \"#utility.yul\":2701:2819   */\n      pop\n      pop\n      jump\t// out\n        /* \"#utility.yul\":2825:3157   */\n    tag_60:\n        /* \"#utility.yul\":2946:2950   */\n      0x00\n        /* \"#utility.yul\":2984:2986   */\n      0x40\n        /* \"#utility.yul\":2973:2982   */\n      dup3\n        /* \"#utility.yul\":2969:2987   */\n      add\n        /* \"#utility.yul\":2961:2987   */\n      swap1\n      pop\n        /* \"#utility.yul\":2997:3068   */\n      tag_157\n        /* \"#utility.yul\":3065:3066   */\n      0x00\n        /* \"#utility.yul\":3054:3063   */\n      dup4\n        /* \"#utility.yul\":3050:3067   */\n      add\n        /* \"#utility.yul\":3041:3047   */\n      dup6\n        /* \"#utility.yul\":2997:3068   */\n      tag_115\n      jump\t// in\n    tag_157:\n        /* \"#utility.yul\":3078:3150   */\n      tag_158\n        /* \"#utility.yul\":3146:3148   */\n      0x20\n        /* \"#utility.yul\":3135:3144   */\n      dup4\n        /* \"#utility.yul\":3131:3149   */\n      add\n        /* \"#utility.yul\":3122:3128   */\n      dup5\n        /* \"#utility.yul\":3078:3150   */\n      tag_107\n      jump\t// in\n    tag_158:\n        /* \"#utility.yul\":2825:3157   */\n      swap4\n      swap3\n      pop\n      pop\n      pop\n      jump\t// out\n        /* \"#utility.yul\":3163:3338   */\n    tag_116:\n        /* \"#utility.yul\":3303:3330   */\n      0x596f75206e65656420746f20626520617574686f72697a656400000000000000\n        /* \"#utility.yul\":3299:3300   */\n      0x00\n        /* \"#utility.yul\":3291:3297   */\n      dup3\n        /* \"#utility.yul\":3287:3301   */\n      add\n        /* \"#utility.yul\":3280:3331   */\n      mstore\n        /* \"#utility.yul\":3163:3338   */\n      pop\n      jump\t// out\n        /* \"#utility.yul\":3344:3710   */\n    tag_117:\n        /* \"#utility.yul\":3486:3489   */\n      0x00\n        /* \"#utility.yul\":3507:3574   */\n      tag_161\n        /* \"#utility.yul\":3571:3573   */\n      0x19\n        /* \"#utility.yul\":3566:3569   */\n      dup4\n        /* \"#utility.yul\":3507:3574   */\n      tag_103\n      jump\t// in\n    tag_161:\n        /* \"#utility.yul\":3500:3574   */\n      swap2\n      pop\n        /* \"#utility.yul\":3583:3676   */\n      tag_162\n        /* \"#utility.yul\":3672:3675   */\n      dup3\n        /* \"#utility.yul\":3583:3676   */\n      tag_116\n      jump\t// in\n    tag_162:\n        /* \"#utility.yul\":3701:3703   */\n      0x20\n        /* \"#utility.yul\":3696:3699   */\n      dup3\n        /* \"#utility.yul\":3692:3704   */\n      add\n        /* \"#utility.yul\":3685:3704   */\n      swap1\n      pop\n        /* \"#utility.yul\":3344:3710   */\n      swap2\n      swap1\n      pop\n      jump\t// out\n        /* \"#utility.yul\":3716:4135   */\n    tag_65:\n        /* \"#utility.yul\":3882:3886   */\n      0x00\n        /* \"#utility.yul\":3920:3922   */\n      0x20\n        /* \"#utility.yul\":3909:3918   */\n      dup3\n        /* \"#utility.yul\":3905:3923   */\n      add\n        /* \"#utility.yul\":3897:3923   */\n      swap1\n      pop\n        /* \"#utility.yul\":3969:3978   */\n      dup2\n        /* \"#utility.yul\":3963:3967   */\n      dup2\n        /* \"#utility.yul\":3959:3979   */\n      sub\n        /* \"#utility.yul\":3955:3956   */\n      0x00\n        /* \"#utility.yul\":3944:3953   */\n      dup4\n        /* \"#utility.yul\":3940:3957   */\n      add\n        /* \"#utility.yul\":3933:3980   */\n      mstore\n        /* \"#utility.yul\":3997:4128   */\n      tag_164\n        /* \"#utility.yul\":4123:4127   */\n      dup2\n        /* \"#utility.yul\":3997:4128   */\n      tag_117\n      jump\t// in\n    tag_164:\n        /* \"#utility.yul\":3989:4128   */\n      swap1\n      pop\n        /* \"#utility.yul\":3716:4135   */\n      swap2\n      swap1\n      pop\n      jump\t// out\n        /* \"#utility.yul\":4141:4220   */\n    tag_118:\n        /* \"#utility.yul\":4180:4187   */\n      0x00\n        /* \"#utility.yul\":4209:4214   */\n      dup2\n        /* \"#utility.yul\":4198:4214   */\n      swap1\n      pop\n        /* \"#utility.yul\":4141:4220   */\n      swap2\n      swap1\n      pop\n      jump\t// out\n        /* \"#utility.yul\":4226:4383   */\n    tag_119:\n        /* \"#utility.yul\":4331:4376   */\n      tag_167\n        /* \"#utility.yul\":4351:4375   */\n      tag_168\n        /* \"#utility.yul\":4369:4374   */\n      dup3\n        /* \"#utility.yul\":4351:4375   */\n      tag_106\n      jump\t// in\n    tag_168:\n        /* \"#utility.yul\":4331:4376   */\n      tag_118\n      jump\t// in\n    tag_167:\n        /* \"#utility.yul\":4326:4329   */\n      dup3\n        /* \"#utility.yul\":4319:4377   */\n      mstore\n        /* \"#utility.yul\":4226:4383   */\n      pop\n      pop\n      jump\t// out\n        /* \"#utility.yul\":4389:4483   */\n    tag_120:\n        /* \"#utility.yul\":4422:4430   */\n      0x00\n        /* \"#utility.yul\":4470:4475   */\n      dup2\n        /* \"#utility.yul\":4466:4468   */\n      0x60\n        /* \"#utility.yul\":4462:4476   */\n      shl\n        /* \"#utility.yul\":4441:4476   */\n      swap1\n      pop\n        /* \"#utility.yul\":4389:4483   */\n      swap2\n      swap1\n      pop\n      jump\t// out\n        /* \"#utility.yul\":4489:4583   */\n    tag_121:\n        /* \"#utility.yul\":4528:4535   */\n      0x00\n        /* \"#utility.yul\":4557:4577   */\n      tag_171\n        /* \"#utility.yul\":4571:4576   */\n      dup3\n        /* \"#utility.yul\":4557:4577   */\n      tag_120\n      jump\t// in\n    tag_171:\n        /* \"#utility.yul\":4546:4577   */\n      swap1\n      pop\n        /* \"#utility.yul\":4489:4583   */\n      swap2\n      swap1\n      pop\n      jump\t// out\n        /* \"#utility.yul\":4589:4689   */\n    tag_122:\n        /* \"#utility.yul\":4628:4635   */\n      0x00\n        /* \"#utility.yul\":4657:4683   */\n      tag_173\n        /* \"#utility.yul\":4677:4682   */\n      dup3\n        /* \"#utility.yul\":4657:4683   */\n      tag_121\n      jump\t// in\n    tag_173:\n        /* \"#utility.yul\":4646:4683   */\n      swap1\n      pop\n        /* \"#utility.yul\":4589:4689   */\n      swap2\n      swap1\n      pop\n      jump\t// out\n        /* \"#utility.yul\":4695:4852   */\n    tag_123:\n        /* \"#utility.yul\":4800:4845   */\n      tag_175\n        /* \"#utility.yul\":4820:4844   */\n      tag_176\n        /* \"#utility.yul\":4838:4843   */\n      dup3\n        /* \"#utility.yul\":4820:4844   */\n      tag_114\n      jump\t// in\n    tag_176:\n        /* \"#utility.yul\":4800:4845   */\n      tag_122\n      jump\t// in\n    tag_175:\n        /* \"#utility.yul\":4795:4798   */\n      dup3\n        /* \"#utility.yul\":4788:4846   */\n      mstore\n        /* \"#utility.yul\":4695:4852   */\n      pop\n      pop\n      jump\t// out\n        /* \"#utility.yul\":4858:5396   */\n    tag_69:\n        /* \"#utility.yul\":5026:5029   */\n      0x00\n        /* \"#utility.yul\":5041:5116   */\n      tag_178\n        /* \"#utility.yul\":5112:5115   */\n      dup3\n        /* \"#utility.yul\":5103:5109   */\n      dup7\n        /* \"#utility.yul\":5041:5116   */\n      tag_119\n      jump\t// in\n    tag_178:\n        /* \"#utility.yul\":5141:5143   */\n      0x20\n        /* \"#utility.yul\":5136:5139   */\n      dup3\n        /* \"#utility.yul\":5132:5144   */\n      add\n        /* \"#utility.yul\":5125:5144   */\n      swap2\n      pop\n        /* \"#utility.yul\":5154:5229   */\n      tag_179\n        /* \"#utility.yul\":5225:5228   */\n      dup3\n        /* \"#utility.yul\":5216:5222   */\n      dup6\n        /* \"#utility.yul\":5154:5229   */\n      tag_119\n      jump\t// in\n    tag_179:\n        /* \"#utility.yul\":5254:5256   */\n      0x20\n        /* \"#utility.yul\":5249:5252   */\n      dup3\n        /* \"#utility.yul\":5245:5257   */\n      add\n        /* \"#utility.yul\":5238:5257   */\n      swap2\n      pop\n        /* \"#utility.yul\":5267:5342   */\n      tag_180\n        /* \"#utility.yul\":5338:5341   */\n      dup3\n        /* \"#utility.yul\":5329:5335   */\n      dup5\n        /* \"#utility.yul\":5267:5342   */\n      tag_123\n      jump\t// in\n    tag_180:\n        /* \"#utility.yul\":5367:5369   */\n      0x14\n        /* \"#utility.yul\":5362:5365   */\n      dup3\n        /* \"#utility.yul\":5358:5370   */\n      add\n        /* \"#utility.yul\":5351:5370   */\n      swap2\n      pop\n        /* \"#utility.yul\":5387:5390   */\n      dup2\n        /* \"#utility.yul\":5380:5390   */\n      swap1\n      pop\n        /* \"#utility.yul\":4858:5396   */\n      swap5\n      swap4\n      pop\n      pop\n      pop\n      pop\n      jump\t// out\n        /* \"#utility.yul\":5402:5582   */\n    tag_124:\n        /* \"#utility.yul\":5450:5527   */\n      0x4e487b7100000000000000000000000000000000000000000000000000000000\n        /* \"#utility.yul\":5447:5448   */\n      0x00\n        /* \"#utility.yul\":5440:5528   */\n      mstore\n        /* \"#utility.yul\":5547:5551   */\n      0x12\n        /* \"#utility.yul\":5544:5545   */\n      0x04\n        /* \"#utility.yul\":5537:5552   */\n      mstore\n        /* \"#utility.yul\":5571:5575   */\n      0x24\n        /* \"#utility.yul\":5568:5569   */\n      0x00\n        /* \"#utility.yul\":5561:5576   */\n      revert\n        /* \"#utility.yul\":5588:5764   */\n    tag_71:\n        /* \"#utility.yul\":5620:5621   */\n      0x00\n        /* \"#utility.yul\":5637:5657   */\n      tag_183\n        /* \"#utility.yul\":5655:5656   */\n      dup3\n        /* \"#utility.yul\":5637:5657   */\n      tag_106\n      jump\t// in\n    tag_183:\n        /* \"#utility.yul\":5632:5657   */\n      swap2\n      pop\n        /* \"#utility.yul\":5671:5691   */\n      tag_184\n        /* \"#utility.yul\":5689:5690   */\n      dup4\n        /* \"#utility.yul\":5671:5691   */\n      tag_106\n      jump\t// in\n    tag_184:\n        /* \"#utility.yul\":5666:5691   */\n      swap3\n      pop\n        /* \"#utility.yul\":5710:5711   */\n      dup3\n        /* \"#utility.yul\":5700:5735   */\n      tag_185\n      jumpi\n        /* \"#utility.yul\":5715:5733   */\n      tag_186\n      tag_124\n      jump\t// in\n    tag_186:\n        /* \"#utility.yul\":5700:5735   */\n    tag_185:\n        /* \"#utility.yul\":5756:5757   */\n      dup3\n        /* \"#utility.yul\":5753:5754   */\n      dup3\n        /* \"#utility.yul\":5749:5758   */\n      mod\n        /* \"#utility.yul\":5744:5758   */\n      swap1\n      pop\n        /* \"#utility.yul\":5588:5764   */\n      swap3\n      swap2\n      pop\n      pop\n      jump\t// out\n        /* \"#utility.yul\":5770:5950   */\n    tag_125:\n        /* \"#utility.yul\":5818:5895   */\n      0x4e487b7100000000000000000000000000000000000000000000000000000000\n        /* \"#utility.yul\":5815:5816   */\n      0x00\n        /* \"#utility.yul\":5808:5896   */\n      mstore\n        /* \"#utility.yul\":5915:5919   */\n      0x11\n        /* \"#utility.yul\":5912:5913   */\n      0x04\n        /* \"#utility.yul\":5905:5920   */\n      mstore\n        /* \"#utility.yul\":5939:5943   */\n      0x24\n        /* \"#utility.yul\":5936:5937   */\n      0x00\n        /* \"#utility.yul\":5929:5944   */\n      revert\n        /* \"#utility.yul\":5956:6147   */\n    tag_78:\n        /* \"#utility.yul\":5996:5999   */\n      0x00\n        /* \"#utility.yul\":6015:6035   */\n      tag_189\n        /* \"#utility.yul\":6033:6034   */\n      dup3\n        /* \"#utility.yul\":6015:6035   */\n      tag_106\n      jump\t// in\n    tag_189:\n        /* \"#utility.yul\":6010:6035   */\n      swap2\n      pop\n        /* \"#utility.yul\":6049:6069   */\n      tag_190\n        /* \"#utility.yul\":6067:6068   */\n      dup4\n        /* \"#utility.yul\":6049:6069   */\n      tag_106\n      jump\t// in\n    tag_190:\n        /* \"#utility.yul\":6044:6069   */\n      swap3\n      pop\n        /* \"#utility.yul\":6092:6093   */\n      dup3\n        /* \"#utility.yul\":6089:6090   */\n      dup3\n        /* \"#utility.yul\":6085:6094   */\n      add\n        /* \"#utility.yul\":6078:6094   */\n      swap1\n      pop\n        /* \"#utility.yul\":6113:6116   */\n      dup1\n        /* \"#utility.yul\":6110:6111   */\n      dup3\n        /* \"#utility.yul\":6107:6117   */\n      gt\n        /* \"#utility.yul\":6104:6140   */\n      iszero\n      tag_191\n      jumpi\n        /* \"#utility.yul\":6120:6138   */\n      tag_192\n      tag_125\n      jump\t// in\n    tag_192:\n        /* \"#utility.yul\":6104:6140   */\n    tag_191:\n        /* \"#utility.yul\":5956:6147   */\n      swap3\n      swap2\n      pop\n      pop\n      jump\t// out\n        /* \"#utility.yul\":6153:6386   */\n    tag_80:\n        /* \"#utility.yul\":6192:6195   */\n      0x00\n        /* \"#utility.yul\":6215:6239   */\n      tag_194\n        /* \"#utility.yul\":6233:6238   */\n      dup3\n        /* \"#utility.yul\":6215:6239   */\n      tag_106\n      jump\t// in\n    tag_194:\n        /* \"#utility.yul\":6206:6239   */\n      swap2\n      pop\n        /* \"#utility.yul\":6261:6327   */\n      0xffffffffffffffffffffffffffffffffffffffffffffffffffffffffffffffff\n        /* \"#utility.yul\":6254:6259   */\n      dup3\n        /* \"#utility.yul\":6251:6328   */\n      sub\n        /* \"#utility.yul\":6248:6351   */\n      tag_195\n      jumpi\n        /* \"#utility.yul\":6331:6349   */\n      tag_196\n      tag_125\n      jump\t// in\n    tag_196:\n        /* \"#utility.yul\":6248:6351   */\n    tag_195:\n        /* \"#utility.yul\":6378:6379   */\n      0x01\n        /* \"#utility.yul\":6371:6376   */\n      dup3\n        /* \"#utility.yul\":6367:6380   */\n      add\n        /* \"#utility.yul\":6360:6380   */\n      swap1\n      pop\n        /* \"#utility.yul\":6153:6386   */\n      swap2\n      swap1\n      pop\n      jump\t// out\n        /* \"#utility.yul\":6392:6572   */\n    tag_86:\n        /* \"#utility.yul\":6440:6517   */\n      0x4e487b7100000000000000000000000000000000000000000000000000000000\n        /* \"#utility.yul\":6437:6438   */\n      0x00\n        /* \"#utility.yul\":6430:6518   */\n      mstore\n        /* \"#utility.yul\":6537:6541   */\n      0x32\n        /* \"#utility.yul\":6534:6535   */\n      0x04\n        /* \"#utility.yul\":6527:6542   */\n      mstore\n        /* \"#utility.yul\":6561:6565   */\n      0x24\n        /* \"#utility.yul\":6558:6559   */\n      0x00\n        /* \"#utility.yul\":6551:6566   */\n      revert\n\n    auxdata: 0xa264697066735822122085f00c5d36c2d04771e9dcf78b980d19ffdcafc0f4cc07daea99157285680c1764736f6c634300081a0033\n}\n",
				"bytecode": {
					"linkReferences": {},
					"object": "60806040526005600455670de0b6b3a7640000600555348015601f575f80fd5b50335f806101000a81548173ffffffffffffffffffffffffffffffffffffffff021916908373ffffffffffffffffffffffffffffffffffffffff160217905550610aac8061006c5f395ff3fe608060405260043610610089575f3560e01c8063713d192911610058578063713d1929146101bc578063a4d66daf146101e4578063b863bd371461020e578063d0e30db01461024a578063f71d96cb14610254576100d2565b80631a39d8ef1461011657806327ea6f2b146101405780632d3b5c7c14610168578063616b40e314610192576100d2565b366100d2575f34036100d0576040517f08c379a00000000000000000000000000000000000000000000000000000000081526004016100c79061072e565b60405180910390fd5b005b5f3403610114576040517f08c379a000000000000000000000000000000000000000000000000000000000815260040161010b9061072e565b60405180910390fd5b005b348015610121575f80fd5b5061012a610291565b6040516101379190610764565b60405180910390f35b34801561014b575f80fd5b50610166600480360381019061016191906107ab565b610297565b005b348015610173575f80fd5b5061017c6102a1565b6040516101899190610764565b60405180910390f35b34801561019d575f80fd5b506101a66102a7565b6040516101b39190610764565b60405180910390f35b3480156101c7575f80fd5b506101e260048036038101906101dd91906107ab565b6102ad565b005b3480156101ef575f80fd5b506101f8610344565b6040516102059190610764565b60405180910390f35b348015610219575f80fd5b50610234600480360381019061022f91906107ab565b61034a565b6040516102419190610764565b60405180910390f35b61025261038b565b005b34801561025f575f80fd5b5061027a600480360381019061027591906107ab565b6105b3565b604051610288929190610815565b60405180910390f35b60025481565b8060048190555050565b60055481565b60035481565b5f8054906101000a900473ffffffffffffffffffffffffffffffffffffffff1673ffffffffffffffffffffffffffffffffffffffff163373ffffffffffffffffffffffffffffffffffffffff161461033a576040517f08c379a000000000000000000000000000000000000000000000000000000000815260040161033190610886565b60405180910390fd5b8060058190555050565b60045481565b5f606442443360405160200161036293929190610909565b604051602081830303815290604052805190602001205f1c6103849190610972565b9050919050565b5f34116103cd576040517f08c379a00000000000000000000000000000000000000000000000000000000081526004016103c49061072e565b60405180910390fd5b5f73ffffffffffffffffffffffffffffffffffffffff163373ffffffffffffffffffffffffffffffffffffffff1603610404575f80fd5b5f60405180604001604052803373ffffffffffffffffffffffffffffffffffffffff168152602001348152509050600181908060018154018082558091505060019003905f5260205f2090600202015f909190919091505f820151815f015f6101000a81548173ffffffffffffffffffffffffffffffffffffffff021916908373ffffffffffffffffffffffffffffffffffffffff1602179055506020820151816001015550503460025f8282546104bc91906109cf565b9250508190555060035f8154809291906104d590610a02565b91905055503373ffffffffffffffffffffffffffffffffffffffff167fd90d253a9de34d2fdd5a75ae49ea17fcb43af32fc8ea08cc6d2341991dd3872e346040516105209190610764565b60405180910390a2600454600354036105b0575f600161054160045461034a565b8154811061055257610551610a49565b5b905f5260205f2090600202015f015f9054906101000a900473ffffffffffffffffffffffffffffffffffffffff1690505f60025490506105928282610601565b60015f61059f9190610697565b5f6002819055505f60038190555050505b50565b600181815481106105c2575f80fd5b905f5260205f2090600202015f91509050805f015f9054906101000a900473ffffffffffffffffffffffffffffffffffffffff16908060010154905082565b8173ffffffffffffffffffffffffffffffffffffffff166108fc8290811502906040515f60405180830381858888f19350505050158015610644573d5f803e3d5ffd5b508173ffffffffffffffffffffffffffffffffffffffff167f9c2270628a9b29d30ae96b6c4c14ed646ee134febdce38a5b77f2bde9cea2e208260405161068b9190610764565b60405180910390a25050565b5080545f8255600202905f5260205f20908101906106b591906106b8565b50565b5b808211156106f7575f8082015f6101000a81549073ffffffffffffffffffffffffffffffffffffffff0219169055600182015f9055506002016106b9565b5090565b5f82825260208201905092915050565b50565b5f6107195f836106fb565b91506107248261070b565b5f82019050919050565b5f6020820190508181035f8301526107458161070e565b9050919050565b5f819050919050565b61075e8161074c565b82525050565b5f6020820190506107775f830184610755565b92915050565b5f80fd5b61078a8161074c565b8114610794575f80fd5b50565b5f813590506107a581610781565b92915050565b5f602082840312156107c0576107bf61077d565b5b5f6107cd84828501610797565b91505092915050565b5f73ffffffffffffffffffffffffffffffffffffffff82169050919050565b5f6107ff826107d6565b9050919050565b61080f816107f5565b82525050565b5f6040820190506108285f830185610806565b6108356020830184610755565b9392505050565b7f596f75206e65656420746f20626520617574686f72697a6564000000000000005f82015250565b5f6108706019836106fb565b915061087b8261083c565b602082019050919050565b5f6020820190508181035f83015261089d81610864565b9050919050565b5f819050919050565b6108be6108b98261074c565b6108a4565b82525050565b5f8160601b9050919050565b5f6108da826108c4565b9050919050565b5f6108eb826108d0565b9050919050565b6109036108fe826107f5565b6108e1565b82525050565b5f61091482866108ad565b60208201915061092482856108ad565b60208201915061093482846108f2565b601482019150819050949350505050565b7f4e487b71000000000000000000000000000000000000000000000000000000005f52601260045260245ffd5b5f61097c8261074c565b91506109878361074c565b92508261099757610996610945565b5b828206905092915050565b7f4e487b71000000000000000000000000000000000000000000000000000000005f52601160045260245ffd5b5f6109d98261074c565b91506109e48361074c565b92508282019050808211156109fc576109fb6109a2565b5b92915050565b5f610a0c8261074c565b91507fffffffffffffffffffffffffffffffffffffffffffffffffffffffffffffffff8203610a3e57610a3d6109a2565b5b600182019050919050565b7f4e487b71000000000000000000000000000000000000000000000000000000005f52603260045260245ffdfea264697066735822122085f00c5d36c2d04771e9dcf78b980d19ffdcafc0f4cc07daea99157285680c1764736f6c634300081a0033",
					"opcodes": "PUSH1 0x80 PUSH1 0x40 MSTORE PUSH1 0x5 PUSH1 0x4 SSTORE PUSH8 0xDE0B6B3A7640000 PUSH1 0x5 SSTORE CALLVALUE DUP1 ISZERO PUSH1 0x1F JUMPI PUSH0 DUP1 REVERT JUMPDEST POP CALLER PUSH0 DUP1 PUSH2 0x100 EXP DUP2 SLOAD DUP2 PUSH20 0xFFFFFFFFFFFFFFFFFFFFFFFFFFFFFFFFFFFFFFFF MUL NOT AND SWAP1 DUP4 PUSH20 0xFFFFFFFFFFFFFFFFFFFFFFFFFFFFFFFFFFFFFFFF AND MUL OR SWAP1 SSTORE POP PUSH2 0xAAC DUP1 PUSH2 0x6C PUSH0 CODECOPY PUSH0 RETURN INVALID PUSH1 0x80 PUSH1 0x40 MSTORE PUSH1 0x4 CALLDATASIZE LT PUSH2 0x89 JUMPI PUSH0 CALLDATALOAD PUSH1 0xE0 SHR DUP1 PUSH4 0x713D1929 GT PUSH2 0x58 JUMPI DUP1 PUSH4 0x713D1929 EQ PUSH2 0x1BC JUMPI DUP1 PUSH4 0xA4D66DAF EQ PUSH2 0x1E4 JUMPI DUP1 PUSH4 0xB863BD37 EQ PUSH2 0x20E JUMPI DUP1 PUSH4 0xD0E30DB0 EQ PUSH2 0x24A JUMPI DUP1 PUSH4 0xF71D96CB EQ PUSH2 0x254 JUMPI PUSH2 0xD2 JUMP JUMPDEST DUP1 PUSH4 0x1A39D8EF EQ PUSH2 0x116 JUMPI DUP1 PUSH4 0x27EA6F2B EQ PUSH2 0x140 JUMPI DUP1 PUSH4 0x2D3B5C7C EQ PUSH2 0x168 JUMPI DUP1 PUSH4 0x616B40E3 EQ PUSH2 0x192 JUMPI PUSH2 0xD2 JUMP JUMPDEST CALLDATASIZE PUSH2 0xD2 JUMPI PUSH0 CALLVALUE SUB PUSH2 0xD0 JUMPI PUSH1 0x40 MLOAD PUSH32 0x8C379A000000000000000000000000000000000000000000000000000000000 DUP2 MSTORE PUSH1 0x4 ADD PUSH2 0xC7 SWAP1 PUSH2 0x72E JUMP JUMPDEST PUSH1 0x40 MLOAD DUP1 SWAP2 SUB SWAP1 REVERT JUMPDEST STOP JUMPDEST PUSH0 CALLVALUE SUB PUSH2 0x114 JUMPI PUSH1 0x40 MLOAD PUSH32 0x8C379A000000000000000000000000000000000000000000000000000000000 DUP2 MSTORE PUSH1 0x4 ADD PUSH2 0x10B SWAP1 PUSH2 0x72E JUMP JUMPDEST PUSH1 0x40 MLOAD DUP1 SWAP2 SUB SWAP1 REVERT JUMPDEST STOP JUMPDEST CALLVALUE DUP1 ISZERO PUSH2 0x121 JUMPI PUSH0 DUP1 REVERT JUMPDEST POP PUSH2 0x12A PUSH2 0x291 JUMP JUMPDEST PUSH1 0x40 MLOAD PUSH2 0x137 SWAP2 SWAP1 PUSH2 0x764 JUMP JUMPDEST PUSH1 0x40 MLOAD DUP1 SWAP2 SUB SWAP1 RETURN JUMPDEST CALLVALUE DUP1 ISZERO PUSH2 0x14B JUMPI PUSH0 DUP1 REVERT JUMPDEST POP PUSH2 0x166 PUSH1 0x4 DUP1 CALLDATASIZE SUB DUP2 ADD SWAP1 PUSH2 0x161 SWAP2 SWAP1 PUSH2 0x7AB JUMP JUMPDEST PUSH2 0x297 JUMP JUMPDEST STOP JUMPDEST CALLVALUE DUP1 ISZERO PUSH2 0x173 JUMPI PUSH0 DUP1 REVERT JUMPDEST POP PUSH2 0x17C PUSH2 0x2A1 JUMP JUMPDEST PUSH1 0x40 MLOAD PUSH2 0x189 SWAP2 SWAP1 PUSH2 0x764 JUMP JUMPDEST PUSH1 0x40 MLOAD DUP1 SWAP2 SUB SWAP1 RETURN JUMPDEST CALLVALUE DUP1 ISZERO PUSH2 0x19D JUMPI PUSH0 DUP1 REVERT JUMPDEST POP PUSH2 0x1A6 PUSH2 0x2A7 JUMP JUMPDEST PUSH1 0x40 MLOAD PUSH2 0x1B3 SWAP2 SWAP1 PUSH2 0x764 JUMP JUMPDEST PUSH1 0x40 MLOAD DUP1 SWAP2 SUB SWAP1 RETURN JUMPDEST CALLVALUE DUP1 ISZERO PUSH2 0x1C7 JUMPI PUSH0 DUP1 REVERT JUMPDEST POP PUSH2 0x1E2 PUSH1 0x4 DUP1 CALLDATASIZE SUB DUP2 ADD SWAP1 PUSH2 0x1DD SWAP2 SWAP1 PUSH2 0x7AB JUMP JUMPDEST PUSH2 0x2AD JUMP JUMPDEST STOP JUMPDEST CALLVALUE DUP1 ISZERO PUSH2 0x1EF JUMPI PUSH0 DUP1 REVERT JUMPDEST POP PUSH2 0x1F8 PUSH2 0x344 JUMP JUMPDEST PUSH1 0x40 MLOAD PUSH2 0x205 SWAP2 SWAP1 PUSH2 0x764 JUMP JUMPDEST PUSH1 0x40 MLOAD DUP1 SWAP2 SUB SWAP1 RETURN JUMPDEST CALLVALUE DUP1 ISZERO PUSH2 0x219 JUMPI PUSH0 DUP1 REVERT JUMPDEST POP PUSH2 0x234 PUSH1 0x4 DUP1 CALLDATASIZE SUB DUP2 ADD SWAP1 PUSH2 0x22F SWAP2 SWAP1 PUSH2 0x7AB JUMP JUMPDEST PUSH2 0x34A JUMP JUMPDEST PUSH1 0x40 MLOAD PUSH2 0x241 SWAP2 SWAP1 PUSH2 0x764 JUMP JUMPDEST PUSH1 0x40 MLOAD DUP1 SWAP2 SUB SWAP1 RETURN JUMPDEST PUSH2 0x252 PUSH2 0x38B JUMP JUMPDEST STOP JUMPDEST CALLVALUE DUP1 ISZERO PUSH2 0x25F JUMPI PUSH0 DUP1 REVERT JUMPDEST POP PUSH2 0x27A PUSH1 0x4 DUP1 CALLDATASIZE SUB DUP2 ADD SWAP1 PUSH2 0x275 SWAP2 SWAP1 PUSH2 0x7AB JUMP JUMPDEST PUSH2 0x5B3 JUMP JUMPDEST PUSH1 0x40 MLOAD PUSH2 0x288 SWAP3 SWAP2 SWAP1 PUSH2 0x815 JUMP JUMPDEST PUSH1 0x40 MLOAD DUP1 SWAP2 SUB SWAP1 RETURN JUMPDEST PUSH1 0x2 SLOAD DUP2 JUMP JUMPDEST DUP1 PUSH1 0x4 DUP2 SWAP1 SSTORE POP POP JUMP JUMPDEST PUSH1 0x5 SLOAD DUP2 JUMP JUMPDEST PUSH1 0x3 SLOAD DUP2 JUMP JUMPDEST PUSH0 DUP1 SLOAD SWAP1 PUSH2 0x100 EXP SWAP1 DIV PUSH20 0xFFFFFFFFFFFFFFFFFFFFFFFFFFFFFFFFFFFFFFFF AND PUSH20 0xFFFFFFFFFFFFFFFFFFFFFFFFFFFFFFFFFFFFFFFF AND CALLER PUSH20 0xFFFFFFFFFFFFFFFFFFFFFFFFFFFFFFFFFFFFFFFF AND EQ PUSH2 0x33A JUMPI PUSH1 0x40 MLOAD PUSH32 0x8C379A000000000000000000000000000000000000000000000000000000000 DUP2 MSTORE PUSH1 0x4 ADD PUSH2 0x331 SWAP1 PUSH2 0x886 JUMP JUMPDEST PUSH1 0x40 MLOAD DUP1 SWAP2 SUB SWAP1 REVERT JUMPDEST DUP1 PUSH1 0x5 DUP2 SWAP1 SSTORE POP POP JUMP JUMPDEST PUSH1 0x4 SLOAD DUP2 JUMP JUMPDEST PUSH0 PUSH1 0x64 TIMESTAMP PREVRANDAO CALLER PUSH1 0x40 MLOAD PUSH1 0x20 ADD PUSH2 0x362 SWAP4 SWAP3 SWAP2 SWAP1 PUSH2 0x909 JUMP JUMPDEST PUSH1 0x40 MLOAD PUSH1 0x20 DUP2 DUP4 SUB SUB DUP2 MSTORE SWAP1 PUSH1 0x40 MSTORE DUP1 MLOAD SWAP1 PUSH1 0x20 ADD KECCAK256 PUSH0 SHR PUSH2 0x384 SWAP2 SWAP1 PUSH2 0x972 JUMP JUMPDEST SWAP1 POP SWAP2 SWAP1 POP JUMP JUMPDEST PUSH0 CALLVALUE GT PUSH2 0x3CD JUMPI PUSH1 0x40 MLOAD PUSH32 0x8C379A000000000000000000000000000000000000000000000000000000000 DUP2 MSTORE PUSH1 0x4 ADD PUSH2 0x3C4 SWAP1 PUSH2 0x72E JUMP JUMPDEST PUSH1 0x40 MLOAD DUP1 SWAP2 SUB SWAP1 REVERT JUMPDEST PUSH0 PUSH20 0xFFFFFFFFFFFFFFFFFFFFFFFFFFFFFFFFFFFFFFFF AND CALLER PUSH20 0xFFFFFFFFFFFFFFFFFFFFFFFFFFFFFFFFFFFFFFFF AND SUB PUSH2 0x404 JUMPI PUSH0 DUP1 REVERT JUMPDEST PUSH0 PUSH1 0x40 MLOAD DUP1 PUSH1 0x40 ADD PUSH1 0x40 MSTORE DUP1 CALLER PUSH20 0xFFFFFFFFFFFFFFFFFFFFFFFFFFFFFFFFFFFFFFFF AND DUP2 MSTORE PUSH1 0x20 ADD CALLVALUE DUP2 MSTORE POP SWAP1 POP PUSH1 0x1 DUP2 SWAP1 DUP1 PUSH1 0x1 DUP2 SLOAD ADD DUP1 DUP3 SSTORE DUP1 SWAP2 POP POP PUSH1 0x1 SWAP1 SUB SWAP1 PUSH0 MSTORE PUSH1 0x20 PUSH0 KECCAK256 SWAP1 PUSH1 0x2 MUL ADD PUSH0 SWAP1 SWAP2 SWAP1 SWAP2 SWAP1 SWAP2 POP PUSH0 DUP3 ADD MLOAD DUP2 PUSH0 ADD PUSH0 PUSH2 0x100 EXP DUP2 SLOAD DUP2 PUSH20 0xFFFFFFFFFFFFFFFFFFFFFFFFFFFFFFFFFFFFFFFF MUL NOT AND SWAP1 DUP4 PUSH20 0xFFFFFFFFFFFFFFFFFFFFFFFFFFFFFFFFFFFFFFFF AND MUL OR SWAP1 SSTORE POP PUSH1 0x20 DUP3 ADD MLOAD DUP2 PUSH1 0x1 ADD SSTORE POP POP CALLVALUE PUSH1 0x2 PUSH0 DUP3 DUP3 SLOAD PUSH2 0x4BC SWAP2 SWAP1 PUSH2 0x9CF JUMP JUMPDEST SWAP3 POP POP DUP2 SWAP1 SSTORE POP PUSH1 0x3 PUSH0 DUP2 SLOAD DUP1 SWAP3 SWAP2 SWAP1 PUSH2 0x4D5 SWAP1 PUSH2 0xA02 JUMP JUMPDEST SWAP2 SWAP1 POP SSTORE POP CALLER PUSH20 0xFFFFFFFFFFFFFFFFFFFFFFFFFFFFFFFFFFFFFFFF AND PUSH32 0xD90D253A9DE34D2FDD5A75AE49EA17FCB43AF32FC8EA08CC6D2341991DD3872E CALLVALUE PUSH1 0x40 MLOAD PUSH2 0x520 SWAP2 SWAP1 PUSH2 0x764 JUMP JUMPDEST PUSH1 0x40 MLOAD DUP1 SWAP2 SUB SWAP1 LOG2 PUSH1 0x4 SLOAD PUSH1 0x3 SLOAD SUB PUSH2 0x5B0 JUMPI PUSH0 PUSH1 0x1 PUSH2 0x541 PUSH1 0x4 SLOAD PUSH2 0x34A JUMP JUMPDEST DUP2 SLOAD DUP2 LT PUSH2 0x552 JUMPI PUSH2 0x551 PUSH2 0xA49 JUMP JUMPDEST JUMPDEST SWAP1 PUSH0 MSTORE PUSH1 0x20 PUSH0 KECCAK256 SWAP1 PUSH1 0x2 MUL ADD PUSH0 ADD PUSH0 SWAP1 SLOAD SWAP1 PUSH2 0x100 EXP SWAP1 DIV PUSH20 0xFFFFFFFFFFFFFFFFFFFFFFFFFFFFFFFFFFFFFFFF AND SWAP1 POP PUSH0 PUSH1 0x2 SLOAD SWAP1 POP PUSH2 0x592 DUP3 DUP3 PUSH2 0x601 JUMP JUMPDEST PUSH1 0x1 PUSH0 PUSH2 0x59F SWAP2 SWAP1 PUSH2 0x697 JUMP JUMPDEST PUSH0 PUSH1 0x2 DUP2 SWAP1 SSTORE POP PUSH0 PUSH1 0x3 DUP2 SWAP1 SSTORE POP POP POP JUMPDEST POP JUMP JUMPDEST PUSH1 0x1 DUP2 DUP2 SLOAD DUP2 LT PUSH2 0x5C2 JUMPI PUSH0 DUP1 REVERT JUMPDEST SWAP1 PUSH0 MSTORE PUSH1 0x20 PUSH0 KECCAK256 SWAP1 PUSH1 0x2 MUL ADD PUSH0 SWAP2 POP SWAP1 POP DUP1 PUSH0 ADD PUSH0 SWAP1 SLOAD SWAP1 PUSH2 0x100 EXP SWAP1 DIV PUSH20 0xFFFFFFFFFFFFFFFFFFFFFFFFFFFFFFFFFFFFFFFF AND SWAP1 DUP1 PUSH1 0x1 ADD SLOAD SWAP1 POP DUP3 JUMP JUMPDEST DUP2 PUSH20 0xFFFFFFFFFFFFFFFFFFFFFFFFFFFFFFFFFFFFFFFF AND PUSH2 0x8FC DUP3 SWAP1 DUP2 ISZERO MUL SWAP1 PUSH1 0x40 MLOAD PUSH0 PUSH1 0x40 MLOAD DUP1 DUP4 SUB DUP2 DUP6 DUP9 DUP9 CALL SWAP4 POP POP POP POP ISZERO DUP1 ISZERO PUSH2 0x644 JUMPI RETURNDATASIZE PUSH0 DUP1 RETURNDATACOPY RETURNDATASIZE PUSH0 REVERT JUMPDEST POP DUP2 PUSH20 0xFFFFFFFFFFFFFFFFFFFFFFFFFFFFFFFFFFFFFFFF AND PUSH32 0x9C2270628A9B29D30AE96B6C4C14ED646EE134FEBDCE38A5B77F2BDE9CEA2E20 DUP3 PUSH1 0x40 MLOAD PUSH2 0x68B SWAP2 SWAP1 PUSH2 0x764 JUMP JUMPDEST PUSH1 0x40 MLOAD DUP1 SWAP2 SUB SWAP1 LOG2 POP POP JUMP JUMPDEST POP DUP1 SLOAD PUSH0 DUP3 SSTORE PUSH1 0x2 MUL SWAP1 PUSH0 MSTORE PUSH1 0x20 PUSH0 KECCAK256 SWAP1 DUP2 ADD SWAP1 PUSH2 0x6B5 SWAP2 SWAP1 PUSH2 0x6B8 JUMP JUMPDEST POP JUMP JUMPDEST JUMPDEST DUP1 DUP3 GT ISZERO PUSH2 0x6F7 JUMPI PUSH0 DUP1 DUP3 ADD PUSH0 PUSH2 0x100 EXP DUP2 SLOAD SWAP1 PUSH20 0xFFFFFFFFFFFFFFFFFFFFFFFFFFFFFFFFFFFFFFFF MUL NOT AND SWAP1 SSTORE PUSH1 0x1 DUP3 ADD PUSH0 SWAP1 SSTORE POP PUSH1 0x2 ADD PUSH2 0x6B9 JUMP JUMPDEST POP SWAP1 JUMP JUMPDEST PUSH0 DUP3 DUP3 MSTORE PUSH1 0x20 DUP3 ADD SWAP1 POP SWAP3 SWAP2 POP POP JUMP JUMPDEST POP JUMP JUMPDEST PUSH0 PUSH2 0x719 PUSH0 DUP4 PUSH2 0x6FB JUMP JUMPDEST SWAP2 POP PUSH2 0x724 DUP3 PUSH2 0x70B JUMP JUMPDEST PUSH0 DUP3 ADD SWAP1 POP SWAP2 SWAP1 POP JUMP JUMPDEST PUSH0 PUSH1 0x20 DUP3 ADD SWAP1 POP DUP2 DUP2 SUB PUSH0 DUP4 ADD MSTORE PUSH2 0x745 DUP2 PUSH2 0x70E JUMP JUMPDEST SWAP1 POP SWAP2 SWAP1 POP JUMP JUMPDEST PUSH0 DUP2 SWAP1 POP SWAP2 SWAP1 POP JUMP JUMPDEST PUSH2 0x75E DUP2 PUSH2 0x74C JUMP JUMPDEST DUP3 MSTORE POP POP JUMP JUMPDEST PUSH0 PUSH1 0x20 DUP3 ADD SWAP1 POP PUSH2 0x777 PUSH0 DUP4 ADD DUP5 PUSH2 0x755 JUMP JUMPDEST SWAP3 SWAP2 POP POP JUMP JUMPDEST PUSH0 DUP1 REVERT JUMPDEST PUSH2 0x78A DUP2 PUSH2 0x74C JUMP JUMPDEST DUP2 EQ PUSH2 0x794 JUMPI PUSH0 DUP1 REVERT JUMPDEST POP JUMP JUMPDEST PUSH0 DUP2 CALLDATALOAD SWAP1 POP PUSH2 0x7A5 DUP2 PUSH2 0x781 JUMP JUMPDEST SWAP3 SWAP2 POP POP JUMP JUMPDEST PUSH0 PUSH1 0x20 DUP3 DUP5 SUB SLT ISZERO PUSH2 0x7C0 JUMPI PUSH2 0x7BF PUSH2 0x77D JUMP JUMPDEST JUMPDEST PUSH0 PUSH2 0x7CD DUP5 DUP3 DUP6 ADD PUSH2 0x797 JUMP JUMPDEST SWAP2 POP POP SWAP3 SWAP2 POP POP JUMP JUMPDEST PUSH0 PUSH20 0xFFFFFFFFFFFFFFFFFFFFFFFFFFFFFFFFFFFFFFFF DUP3 AND SWAP1 POP SWAP2 SWAP1 POP JUMP JUMPDEST PUSH0 PUSH2 0x7FF DUP3 PUSH2 0x7D6 JUMP JUMPDEST SWAP1 POP SWAP2 SWAP1 POP JUMP JUMPDEST PUSH2 0x80F DUP2 PUSH2 0x7F5 JUMP JUMPDEST DUP3 MSTORE POP POP JUMP JUMPDEST PUSH0 PUSH1 0x40 DUP3 ADD SWAP1 POP PUSH2 0x828 PUSH0 DUP4 ADD DUP6 PUSH2 0x806 JUMP JUMPDEST PUSH2 0x835 PUSH1 0x20 DUP4 ADD DUP5 PUSH2 0x755 JUMP JUMPDEST SWAP4 SWAP3 POP POP POP JUMP JUMPDEST PUSH32 0x596F75206E65656420746F20626520617574686F72697A656400000000000000 PUSH0 DUP3 ADD MSTORE POP JUMP JUMPDEST PUSH0 PUSH2 0x870 PUSH1 0x19 DUP4 PUSH2 0x6FB JUMP JUMPDEST SWAP2 POP PUSH2 0x87B DUP3 PUSH2 0x83C JUMP JUMPDEST PUSH1 0x20 DUP3 ADD SWAP1 POP SWAP2 SWAP1 POP JUMP JUMPDEST PUSH0 PUSH1 0x20 DUP3 ADD SWAP1 POP DUP2 DUP2 SUB PUSH0 DUP4 ADD MSTORE PUSH2 0x89D DUP2 PUSH2 0x864 JUMP JUMPDEST SWAP1 POP SWAP2 SWAP1 POP JUMP JUMPDEST PUSH0 DUP2 SWAP1 POP SWAP2 SWAP1 POP JUMP JUMPDEST PUSH2 0x8BE PUSH2 0x8B9 DUP3 PUSH2 0x74C JUMP JUMPDEST PUSH2 0x8A4 JUMP JUMPDEST DUP3 MSTORE POP POP JUMP JUMPDEST PUSH0 DUP2 PUSH1 0x60 SHL SWAP1 POP SWAP2 SWAP1 POP JUMP JUMPDEST PUSH0 PUSH2 0x8DA DUP3 PUSH2 0x8C4 JUMP JUMPDEST SWAP1 POP SWAP2 SWAP1 POP JUMP JUMPDEST PUSH0 PUSH2 0x8EB DUP3 PUSH2 0x8D0 JUMP JUMPDEST SWAP1 POP SWAP2 SWAP1 POP JUMP JUMPDEST PUSH2 0x903 PUSH2 0x8FE DUP3 PUSH2 0x7F5 JUMP JUMPDEST PUSH2 0x8E1 JUMP JUMPDEST DUP3 MSTORE POP POP JUMP JUMPDEST PUSH0 PUSH2 0x914 DUP3 DUP7 PUSH2 0x8AD JUMP JUMPDEST PUSH1 0x20 DUP3 ADD SWAP2 POP PUSH2 0x924 DUP3 DUP6 PUSH2 0x8AD JUMP JUMPDEST PUSH1 0x20 DUP3 ADD SWAP2 POP PUSH2 0x934 DUP3 DUP5 PUSH2 0x8F2 JUMP JUMPDEST PUSH1 0x14 DUP3 ADD SWAP2 POP DUP2 SWAP1 POP SWAP5 SWAP4 POP POP POP POP JUMP JUMPDEST PUSH32 0x4E487B7100000000000000000000000000000000000000000000000000000000 PUSH0 MSTORE PUSH1 0x12 PUSH1 0x4 MSTORE PUSH1 0x24 PUSH0 REVERT JUMPDEST PUSH0 PUSH2 0x97C DUP3 PUSH2 0x74C JUMP JUMPDEST SWAP2 POP PUSH2 0x987 DUP4 PUSH2 0x74C JUMP JUMPDEST SWAP3 POP DUP3 PUSH2 0x997 JUMPI PUSH2 0x996 PUSH2 0x945 JUMP JUMPDEST JUMPDEST DUP3 DUP3 MOD SWAP1 POP SWAP3 SWAP2 POP POP JUMP JUMPDEST PUSH32 0x4E487B7100000000000000000000000000000000000000000000000000000000 PUSH0 MSTORE PUSH1 0x11 PUSH1 0x4 MSTORE PUSH1 0x24 PUSH0 REVERT JUMPDEST PUSH0 PUSH2 0x9D9 DUP3 PUSH2 0x74C JUMP JUMPDEST SWAP2 POP PUSH2 0x9E4 DUP4 PUSH2 0x74C JUMP JUMPDEST SWAP3 POP DUP3 DUP3 ADD SWAP1 POP DUP1 DUP3 GT ISZERO PUSH2 0x9FC JUMPI PUSH2 0x9FB PUSH2 0x9A2 JUMP JUMPDEST JUMPDEST SWAP3 SWAP2 POP POP JUMP JUMPDEST PUSH0 PUSH2 0xA0C DUP3 PUSH2 0x74C JUMP JUMPDEST SWAP2 POP PUSH32 0xFFFFFFFFFFFFFFFFFFFFFFFFFFFFFFFFFFFFFFFFFFFFFFFFFFFFFFFFFFFFFFFF DUP3 SUB PUSH2 0xA3E JUMPI PUSH2 0xA3D PUSH2 0x9A2 JUMP JUMPDEST JUMPDEST PUSH1 0x1 DUP3 ADD SWAP1 POP SWAP2 SWAP1 POP JUMP JUMPDEST PUSH32 0x4E487B7100000000000000000000000000000000000000000000000000000000 PUSH0 MSTORE PUSH1 0x32 PUSH1 0x4 MSTORE PUSH1 0x24 PUSH0 REVERT INVALID LOG2 PUSH5 0x6970667358 0x22 SLT KECCAK256 DUP6 CREATE 0xC TSTORE CALLDATASIZE 0xC2 0xD0 SELFBALANCE PUSH18 0xE9DCF78B980D19FFDCAFC0F4CC07DAEA9915 PUSH19 0x85680C1764736F6C634300081A003300000000 "
				},
				"gasEstimates": {
					"creation": {
						"codeDepositCost": "546400",
						"executionCost": "69056",
						"totalCost": "615456"
					},
					"external": {
						"": "468",
						"deposit()": "infinite",
						"investLimit()": "2470",
						"limit()": "2447",
						"players(uint256)": "infinite",
						"random(uint256)": "infinite",
						"setInvestLimit(uint256)": "24681",
						"setLimit(uint256)": "22538",
						"totalAmount()": "2426",
						"totalInvest()": "2492"
					},
					"internal": {
						"winner(address,uint256)": "infinite"
					}
				},
				"methodIdentifiers": {
					"deposit()": "d0e30db0",
					"investLimit()": "2d3b5c7c",
					"limit()": "a4d66daf",
					"players(uint256)": "f71d96cb",
					"random(uint256)": "b863bd37",
					"setInvestLimit(uint256)": "713d1929",
					"setLimit(uint256)": "27ea6f2b",
					"totalAmount()": "1a39d8ef",
					"totalInvest()": "616b40e3"
				}
			},
			"storageLayout": {
				"storage": [
					{
						"astId": 3,
						"contract": "contracts/Can-raw.sol:CanDraw",
						"label": "owner",
						"offset": 0,
						"slot": "0",
						"type": "t_address"
					},
					{
						"astId": 21,
						"contract": "contracts/Can-raw.sol:CanDraw",
						"label": "players",
						"offset": 0,
						"slot": "1",
						"type": "t_array(t_struct(Player)17_storage)dyn_storage"
					},
					{
						"astId": 23,
						"contract": "contracts/Can-raw.sol:CanDraw",
						"label": "totalAmount",
						"offset": 0,
						"slot": "2",
						"type": "t_uint256"
					},
					{
						"astId": 25,
						"contract": "contracts/Can-raw.sol:CanDraw",
						"label": "totalInvest",
						"offset": 0,
						"slot": "3",
						"type": "t_uint256"
					},
					{
						"astId": 28,
						"contract": "contracts/Can-raw.sol:CanDraw",
						"label": "limit",
						"offset": 0,
						"slot": "4",
						"type": "t_uint256"
					},
					{
						"astId": 35,
						"contract": "contracts/Can-raw.sol:CanDraw",
						"label": "investLimit",
						"offset": 0,
						"slot": "5",
						"type": "t_uint256"
					}
				],
				"types": {
					"t_address": {
						"encoding": "inplace",
						"label": "address",
						"numberOfBytes": "20"
					},
					"t_array(t_struct(Player)17_storage)dyn_storage": {
						"base": "t_struct(Player)17_storage",
						"encoding": "dynamic_array",
						"label": "struct CanDraw.Player[]",
						"numberOfBytes": "32"
					},
					"t_struct(Player)17_storage": {
						"encoding": "inplace",
						"label": "struct CanDraw.Player",
						"members": [
							{
								"astId": 14,
								"contract": "contracts/Can-raw.sol:CanDraw",
								"label": "player",
								"offset": 0,
								"slot": "0",
								"type": "t_address"
							},
							{
								"astId": 16,
								"contract": "contracts/Can-raw.sol:CanDraw",
								"label": "amount",
								"offset": 0,
								"slot": "1",
								"type": "t_uint256"
							}
						],
						"numberOfBytes": "64"
					},
					"t_uint256": {
						"encoding": "inplace",
						"label": "uint256",
						"numberOfBytes": "32"
					}
				}
			},
			"userdoc": {
				"kind": "user",
				"methods": {},
				"version": 1
			}
		}
	}
}